:020000040808EA
:2000000000002F2081ED09084DE9090855E909085DE9090865E909086DE90908D1ED090890
:20002000000000000000000000000000D1ED090875E90908000000005D03080809030808F6
:20004000D1ED0908D1ED0908D1ED0908D1ED0908D1ED0908D1ED0908D1ED0908D1ED090828
:20006000D1ED090883E90908D1ED0908D1ED090891E90908D1ED0908D1ED0908D1ED09089E
:20008000D1ED0908D1ED0908D1ED0908D1ED0908D1ED0908D1ED0908D1ED0908D1ED0908E8
:2000A000D1ED0908D1ED0908D1ED0908D1ED0908D1ED0908A1E90908B5E90908C9E9090828
:2000C000DDE90908D1ED0908D1ED0908D1ED0908D1ED0908F1E90908D1ED0908D1ED090884
:2000E000D1ED090805EA0908D1ED090819EA09082DEA090841EA0908D1ED0908D1ED09084C
:2001000055EA090869EA09087DEA0908D1ED0908D1ED0908D1ED0908D1ED090891EA0908EB
:20012000A5EA0908D1ED0908D1ED0908B9EA0908CDEA0908E1EA0908D1ED0908F5EA09086A
:20014000D1ED0908D1ED0908D1ED0908D1ED0908D1ED0908D1ED0908D1ED0908D1ED090827
:20016000D1ED090809EB0908D1ED0908D1ED0908D1ED0908D1ED090835EB0908D1ED09086F
:20018000D1ED0908D1ED0908D1ED0908D1ED0908D1ED0908D1ED0908D1ED0908D1ED0908E7
:2001A000D1ED0908D1ED0908D1ED0908D1ED0908D1ED0908D1ED0908D1ED0908D1ED0908C7
:2001C000D1ED0908D1ED0908D1ED0908D1ED090849EB09085DEB0908D1ED0908D1ED0908A7
:2001E000D1ED0908D1ED0908D1ED0908D1ED0908D1ED0908D1ED0908D1ED0908D1ED090887
:20020000D1ED0908D1ED0908D1ED0908D1ED0908D1ED0908D1ED0908D1ED0908D1ED090866
:20022000D1ED0908D1ED0908D1ED0908D1ED0908D1ED0908D1ED090871EB0908D1ED0908A8
:20024000D1ED0908D1ED0908D1ED0908D1ED0908D1ED0908D1ED0908D1ED0908D1ED090826
:14026000D1ED090800000000D1ED0908D1ED0908D1ED09084E
:2002780010B5054C237833B9044B13B10448AFF300800123237010BD600F00200000000035
:20029800DCAE0D0808B5034B1BB103490348AFF3008008BD00000000640F0020DCAE0D0820
:2002B80072B64FF0E0201749C0F8081D1648016841F00101016015481249096801604FF05E
:2002D800E020134941614FF0070101614FF00001C0F8181D4FF07F41C0F81C1D0D49C0F834
:2002F800201D7047FFF7FEBF01B5BDE80140704701B500F097F8BDE801407047FFF7FEBF67
:20031800FFF7FEBF00000808001000E000520320FF6918000000FF404FF000002D4A1060B8
:20033800EFF3148020F0040080F3148862B64FF080504FF0E021C1F8040DBFF34F8FBFF399
:200358006F8FFEE72448254A4FF00003016891B10360EFF3098C2CE9F00F1EF0100F01D1ED
:200378002CED108A1E4C4CF804EDC1F808C025680DB18D61236072B61168D1B1016062B63A
:200398004F68174C8D6907F101074F602560D1F80CC08CF30B88D1F808C05CF804EB1EF078
:2003B800100F01D1BCEC108ABCE8F00F8CF30988704772B61168016009B962B6F9E74FF08D
:2003D80000674FF0E028C8F8047D62B6D8E700BF704700009C5203200452032008520320C2
:2003F80008580320026922F00702A2F144026FF0430313604FF0000353609360D36013615C
:2004180053619361D361136253629362D362136353634FF0FF339363D1634FF08073136424
:20043800826070472249086800F101000860214B1A683AB1A2F101021A601AB91E4B4FF072
:20045800010018601D490868026822B11C4B4FF001021A6008E000F104001A4B1A6890423F
:2004780001D1194B18680860134B1A6812B914490868C8B101B51249086808B148F0C4F827
:200498000D4B1A6872B147F0AFFF1048016849B90F4801680F4A13680F484FF080529942C8
:2004B80000D00260BDE80140BFF34F8F70470000A852032008580320AC5203203853032056
:2004D8003C53032034530320305303209C520320045203200852032004ED00E010F8012BF6
:2004F80011F8013B012A28BF9A42F7D0D01A7047034613F8012B002AFBD1181A01387047B1
:2005180081F0004102E000BF83F0004330B54FEA41044FEA430594EA050F08BF90EA020FF2
:200538001FBF54EA000C55EA020C7FEA645C7FEA655C00F0E2804FEA5454D4EB5555B8BFC8
:200558006D420CDD2C4480EA020281EA030382EA000083EA010180EA020281EA0303362D7F
:2005780088BF30BD11F0004F4FEA01314FF4801C4CEA113102D0404261EB410113F0004FE9
:200598004FEA03334CEA133302D0524263EB430394EA050F00F0A780A4F10104D5F1200E27
:2005B8000DDB02FA0EFC22FA05F2801841F1000103FA0EF2801843FA05F359410EE0A5F16F
:2005D80020050EF1200E012A03FA0EFC28BF4CF0020C43FA05F3C01851EBE37101F000457B
:2005F80007D54FF0000EDCF1000C7EEB00006EEB0101B1F5801F1BD3B1F5001F0CD34908F5
:200618005FEA30004FEA3C0C04F101044FEA445212F5800F80F09A80BCF1004F08BF5FEAD3
:20063800500C50F1000041EB045141EA050130BD5FEA4C0C404141EB0101013C28BFB1F54C
:20065800801FE9D291F0000F04BF01460020B1FA81F308BF2033A3F10B03B3F120020CDAE7
:200678000C3208DD02F1140CC2F10C0201FA0CF021FA02F10CE002F11402D8BFC2F1200CFB
:2006980001FA02F120FA0CFCDCBF41EA0C019040E41AA2BF01EB0451294330BD6FEA040435
:2006B8001F3C1CDA0C340EDC04F11404C4F1200220FA04F001FA02F340EA030021FA04F386
:2006D80045EA030130BDC4F10C04C4F1200220FA02F001FA04F340EA0300294630BD21FAA4
:2006F80004F0294630BD94F0000F83F4801306BF81F480110134013D4EE77FEA645C18BF82
:200718007FEA655C29D094EA050F08BF90EA020F05D054EA000C04BF1946104630BD91EABB
:20073800030F1EBF0021002030BD5FEA545C05D14000494128BF41F0004130BD14F5800418
:200758003CBF01F5801130BD01F0004545F0FE4141F470014FF0000030BD7FEA645C1ABF94
:20077800194610467FEA655C1CBF0B46024650EA013406BF52EA033591EA030F41F4002183
:2007980030BD00BF90F0000F04BF0021704730B54FF4806404F132044FF000054FF00001B0
:2007B80050E700BF90F0000F04BF0021704730B54FF4806404F1320410F0004548BF4042FC
:2007D8004FF000013EE700BF42004FEAE2014FEA31014FEA02701FBF12F07F4393F07F4F76
:0807F80081F06051704732F0FE
:200800007F4208BF704793F07F4F04BF41F40021704730B54FF4607401F0004521F00041F4
:200820001CE700BF50EA010208BF704730B54FF000050AE050EA010208BF704730B511F087
:20084000004502D5404261EB41014FF4806404F132045FEA915C3FF4D8AE4FF003025FEA9E
:20086000DC0C18BF03325FEADC0C18BF033202EBDC02C2F1200300FA03FC20FA02F001FAA6
:2008800003FE40EA0E0021FA02F11444BDE600BF70B54FF0FF0C4CF4E06C1CEA11541DBF15
:2008A0001CEA135594EA0C0F95EA0C0F00F0DEF82C4481EA030621EA4C5123EA4C5350EA5F
:2008C000013518BF52EA033541F4801143F4801338D0A0FB02CE4FF00005E1FB02E506F097
:2008E0000042E0FB03E54FF00006E1FB03569CF0000F18BF4EF0010EA4F1FF04B6F5007FF8
:2009000064F5407404D25FEA4E0E6D4146EB060642EAC62141EA55514FEAC52040EA5E508A
:200920004FEACE2EB4F1FD0C88BFBCF5E06F1ED8BEF1004F08BF5FEA500E50F1000041EBBE
:20094000045170BD06F0004646EA010140EA020081EA0301B4EB5C04C2BFD4EB0C0541EA91
:20096000045170BD41F480114FF0000E013C00F3AB8014F1360FDEBF002001F0004170BD21
:20098000C4F10004203C35DA0C341BDC04F11404C4F1200500FA05F320FA04F001FA05F223
:2009A00040EA020001F0004221F0004110EBD37021FA04F642EB06015EEA430E08BF20EA95
:2009C000D37070BDC4F10C04C4F1200500FA04F320FA05F001FA04F240EA020001F00041B9
:2009E00010EBD37041F100015EEA430E08BF20EAD37070BDC4F1200500FA05F24EEA020E99
:200A000020FA04F301FA05F243EA020321FA04F001F0004121FA04F220EA020000EBD37015
:200A20005EEA430E08BF20EAD37070BD94F0000F0FD101F00046400041EB010111F4801F20
:200A400008BF013CF7D041EA060195F0000F18BF704703F00046520043EB030313F4801F12
:200A600008BF013DF7D043EA0603704794EA0C0F0CEA135518BF95EA0C0F0CD050EA4106F8
:200A800018BF52EA4306D1D181EA030101F000414FF0000070BD50EA410606BF1046194650
:200AA00052EA430619D094EA0C0F02D150EA013613D195EA0C0F05D152EA03361CBF1046F1
:200AC00019460AD181EA030101F0004141F0FE4141F470014FF0000070BD41F0FE4141F414
:200AE000780170BD70B54FF0FF0C4CF4E06C1CEA11541DBF1CEA135594EA0C0F95EA0C0F6D
:200B000000F0A7F8A4EB050481EA030E52EA03354FEA013100F088804FEA03334FF08055D8
:200B200045EA131343EA12634FEA022245EA111545EA10654FEA00260EF000419D4208BF24
:200B4000964244F1FD0404F5407402D25B084FEA3202B61A65EB03055B084FEA32024FF4FB
:200B600080104FF4002CB6EB020E75EB030E22BFB61A754640EA0C005B084FEA3202B6EB41
:200B8000020E75EB030E22BFB61A754640EA5C005B084FEA3202B6EB020E75EB030E22BF0F
:200BA000B61A754640EA9C005B084FEA3202B6EB020E75EB030E22BFB61A754640EADC0080
:200BC00055EA060E18D04FEA051545EA16754FEA06164FEAC30343EA52734FEAC2025FEA41
:200BE0001C1CC0D111F4801F0BD141EA00014FF000004FF0004CB6E711F4801F04BF01436E
:200C00000020B4F1FD0C88BFBCF5E06F3FF6AFAEB5EB030C04BFB6EB020C5FEA500C50F126
:200C2000000041EB045170BD0EF0004E4EEA113114EB5C04C2BFD4EB0C0541EA045170BDE3
:200C400041F480114FF0000E013C90E645EA060E8DE60CEA135594EA0C0F08BF95EA0C0FC0
:200C60003FF43BAF94EA0C0F0AD150EA01347FF434AF95EA0C0F7FF425AF104619462CE775
:200C800095EA0C0F06D152EA03353FF4FDAE1046194622E750EA410618BF52EA43067FF483
:200CA000C5AE50EA41047FF40DAF52EA43057FF4EBAE12E74FF0FF3C06E000BF4FF0010C1F
:200CC00002E000BF4FF0010C4DF804CD4FEA410C7FEA6C5C4FEA430C18BF7FEA6C5C1BD0DF
:200CE00001B050EA410C0CBF52EA430C91EA030F02BF90EA020F0020704710F1000F91EA2B
:200D0000030F58BF994208BF90422CBFD8176FEAE37040F0010070474FEA410C7FEA6C5C11
:200D200002D150EA013C07D14FEA430C7FEA6C5CD6D152EA033CD3D05DF8040B704700BF39
:200D40008446104662468C461946634600E000BF01B5FFF7B7FF002848BF10F1000F01BDF3
:200D60004DF808EDFFF7F4FF0CBF012000205DF808FB00BF4DF808EDFFF7EAFF34BF012000
:200D800000205DF808FB00BF4DF808EDFFF7E0FF94BF012000205DF808FB00BF4DF808ED28
:200DA000FFF7CEFF94BF012000205DF808FB00BF4DF808EDFFF7C4FF34BF012000205DF849
:200DC00008FB00BF4FEA410C7FEA6C5C02D150EA013C0AD14FEA430C7FEA6C5C02D152EAAD
:200DE000033C02D14FF0000070474FF0010070474FEA410212F5001215D211D56FF4787344
:200E0000B3EB625212D94FEAC12343F0004343EA505311F0004F23FA02F018BF40427047C3
:200E20004FF00000704750EA013005D111F0004008BF6FF0004070474FF00000704700BF68
:200E40004A0011D212F5001211D20DD56FF47873B3EB62520ED44FEAC12343F0004343EA45
:200E6000505323FA02F070474FF00000704750EA013002D14FF0FF3070474FF000007047BA
:200E80004FEA4102B2F1E04324BFB3F5001CDCF1FE5C0DD901F0004C4FEAC0024CEA50702E
:200EA000B2F1004F40EB830008BF20F00100704711F0804F21D113F13872BCBF01F00040E7
:200EC000704741F480114FEA5252C2F11802C2F1200C10FA0CF320FA02F018BF40F00100EF
:200EE0004FEAC1234FEAD32303FA0CFC40EA0C0023FA02F34FEA4303CCE77FEA625307D131
:200F000050EA01331EBF4FF0FE4040F44000704701F0004040F0FE4040F40000704700BF95
:200F200053B94AB9002908BF00281CBF4FF0FF314FF0FF3000F0E6B9ADF1080C6DE904CE69
:200F400000F03CF8DDF804E0DDE9022304B0704738B50022002304460D46FFF70BFF28B9AE
:200F600020462946BDE8384000F00AB8204605F1004100F005F8404261EB410138BD00BF7F
:200F8000D0B500220B4B06460F46FFF781FCFFF757FF0446FFF702FC0022074BFFF778FCD8
:200FA00002460B4630463946FFF7BAFAFFF748FF2146D0BD0000F03D0000F0412DE9F04F15
:200FC000099D884604468E46002B4AD18A4217465FD9B2FA82F64EB1C6F1200301FA06FEDC
:200FE000B740B44020FA03F343EA0E0E4FEA17481FFA87FC230CBEFBF8F108FB11EE01FBAA
:201000000CF243EA0E439A4207D9FB1801F1FF3002D29A4200F2548101469B1AA2B2B3FBEF
:20102000F8F008FB103300FB0CFC42EA034294450BD9BA1800F1FF332CBF0124002494454F
:2010400002D9002C00F03F81184640EA0140A2EB0C0200211DB1F2400023C5E90023BDE8BB
:20106000F08F8B4205D90DB1C5E9000100210846F5E7B3FA83F100294ED14345C0F012815A
:20108000824240F20F810846002DE8D0C5E9004EE5E7002A00F0AC80B2FA82F6002E40F007
:2010A000BB808B1A4FEA124EBCB20121020C80B2B3FBFEFC0EFB1C3342EA034304FB0CF278
:2010C0009A420ED9FB180CF1FF382CBF4FF001094FF000099A4203D9B9F1000F00F0EC80BD
:2010E000C4469B1AB3FBFEF80EFB183304FB08F440EA034294420BD9BA1808F1FF332CBF2D
:2011000001200020944202D9002800F0D1809846121B48EA0C409DE7C1F120068B4008FAC2
:2011200001F400FA01F922FA06F728FA06F88A401F4320FA06F3380C23431FFA87FC1C0CE0
:20114000B8FBF0FE00FB1E8844EA08440EFB0CF8A0450ED93C190EF1FF3A2CBF4FF0010B37
:201160004FF0000BA04503D9BBF1000F00F0B880D646A4EB08041FFA83F8B4FBF0F300FBA9
:20118000134403FB0CFC48EA0444A4450ED93C1903F1FF302CBF4FF001084FF00008A445CD
:2011A00003D9B8F1000F00F09F80034643EA0E40A4EB0C04A0FB02EC64457346E04602D343
:2011C00007D1F14505D2BEEB02036CEB070C0138E0465DB1B9EB030264EB080404FA06F6A7
:2011E00022FA01F3CC401E43C5E90064002136E7B1FBF2FC010C144680B2964641EA08419F
:201200002026904640EA01431046B1FBF2F1A3EB080341EA0C414BE7B740C6F1200301FA50
:2012200006F221FA03F84FEA174E20FA03F3BCB2B0401343020C190C80B2B8FBFEF90EFB26
:20124000198841EA084109FB04F8884551D9791809F1FF3C2CBF4FF0010A4FF0000A884571
:2012600002D9BAF1000F31D0A1EB0801B1FBFEF909FB04F80EFB19119BB243EA0143434527
:2012800035D2FB1809F1FF312CBF4FF0010A4FF0000A4345BBD2BAF1000FB8D1A9F1020197
:2012A0003B44B4E7841A68EB030201209646EBE63A44A8F102082BE7ACF1020C3B4410E7FC
:2012C00002393B44A9E63A440238BEE6A7EB0808A9F1020C4144B1FBFEF909FB04F8C9E747
:2012E000AEF1020E3C4444E7023B3C445EE749468DE7A1EB0801CC46B1FBFEF909FB04F845
:20130000B8E700BF704700BF80B586B002AF78600023FB60342300934FF4C0531F4A204975
:20132000204847F027FC0346002B0AD11D4BBB60B8681AF0C5FFF860FB68002B01D000BFB5
:20134000FDE7342300934FF4C043174A1749184847F010FC0346002B05D1154BBB60B86830
:2013600038F01EFAF860342300934FF40043114A1149124847F0FEFB0346002B0AD10F4B7D
:20138000BB60B86853F056FBF860FB68002B01D000BFFDE700BF1037BD4680BD7C0F002033
:2013A000F8AE0D087C270020B02700200CAF0D08B0870020E487002020AF0D08E407012016
:2013C00080B58CB000AF094B18462C231A46002156F06EF9064B4FF000021A60054820F055
:2013E00079F900BF3037BD4680BD00BF18080120440801208400032080B483B000AF786013
:201400007B681B681B6803F00403002B26D0254B1B68196C244B93F820305A1CD0B2224AA2
:2014200082F8200089B2204A08335B0013440A46DA801D4B93F82030052B07D11A4B002204
:2014400083F82020184B012283F82820154B1B681A68144B1B6842F004021A607B681B6829
:201460001B6803F00803002B07D00E4B1B681A680C4B1B6842F008021A607B681B681B6812
:2014800003F01003002B07D07B681B681A687B681B6842F010021A6000BF0C37BD465DF8DE
:2014A000047B704784000320180801200000000080B500AF09F076FA9D4B93F829300A2BC0
:2014C00010D99B4B002283F82020994B002283F8292098481EF03CFE964820F0FBF8944BAE
:2014E00000221A70924B1B78052B00F2AC8101A252F823F00D150808611508088D15080817
:20150000C91508083518080859180808894B1B689B68884A126823F0005323F001039360E9
:20152000844B1B689A68834B1B6842F080529A60804B1B689A687F4B1B6842F000429A60FD
:201540007D4A00217B481EF0D7FB0346002B03D0774B00221A7084E1754B01221A7080E118
:2015600074481EF0AFFC0346002B03D0704B01221A7076E16F4820F013F86D4B02221A70B8
:201580006E4A0A2100200AF009FB6AE1684B5B68002B00F06381694A0A2100200AF0FEFA9A
:2015A000644B1B685A68634B1B6842F00E025A60604B1B689A685F4B1B6842F004029A607B
:2015C0005B4B03221A7049E1594B93F82830002B2FD0574B002283F82820554BDB8BB3F5A6
:2015E000617F1ED3524BDB8B40F24A62934218D84F4B002283F829204D4B002283F8282077
:201600004B4B4B4A0C3316321068516803C312891A80474B01225A70454B012283F82A20F5
:2016200007E0434B93F829300133DAB2404B83F829203F4B5B78002B00F0F4803D4B1B684B
:201640005A683C4B1B6822F00E025A60384B00225A70374B5B8A07EE903AF8EE677A384B03
:201660001B8807EE103AB8EE477ADFED361A9FED361AF0EE470AB0EE670A08F072FFF0EEA4
:20168000407AFCEEE77A17EE903A9AB22C4B1A802B4B1B8807EE903AF8EE677A17EE900ADB
:2016A000FFF79EF820A3D3E90023FFF7F1F802460B46104619464FF00002244BFFF712FA1D
:2016C00002460B4610461946FFF7DAFB0346204A13601F4B1B681F4AD3601F4B9B8803F0C2
:2016E0000403002B00F09780114B5B6A002B00F08480184BDB681846FFF772F84FF0663236
:20170000164BFFF741FB0346002B2BD0114BB3F87230002B26D1124B9B6843F00403104A08
:20172000936038E0AFF300806666666666E63A401808012084000320F91308081C080120D5
:2017400048080120B0AA2A3F9FAAAA3E0000B0404408012028720120A8720120666626409F
:20176000FC630120424BDB681846FFF739F83EA3D3E90023FFF712FB0346002B0BD03D4BFA
:201780009B6823F004033B4A93603A4B9B6823F00203384A9360364BD3ED037AB6EE007AC3
:2017A000F4EEC77AF1EE10FA05D8324B9B6843F00203304A93602E4BD3ED037AF5EE407AC8
:2017C000F1EE10FA2AD02A4BD3ED037AB2EE067AF4EEC77AF1EE10FA20D8254BB3F8723093
:2017E000002B1BD1244B1B78002B17D1224B01221A70224B00221A7010E0214B1B78002B70
:201800000CD1204A42F2283113200AF0C7F91C4B01221A7002E01C4B01221A701B4B022273
:201820001A701DE0194B5B68002B19D0174B04221A7015E0164A0A2100200AF0AFF9134B34
:2018400002221A700DE0124A0A2100200AF0A6F90E4B02221A7004E000BF02E000BF00E082
:2018600000BF00BF80BD00BF8FC2F5285C8F264028720120FC630120C07001204A08012030
:201880004D0801203C0801204C080120180801201C08012080B400AF0A4B0022A3F87C20E1
:2018A000094B01221A70094BDB6843F40073074AD360054B00221A7000BFBD465DF8047BD0
:2018C000704700BF287201204B080120FC630120B0B5AAB000AF2D4A2D4B14461D460FCDED
:2018E0000FC495E8030084E803002A4A2A4B1046194648231A4655F0CCFF284B1846482371
:201900001A46002155F0D4FE244B4FF07E521A60224B4FF07E525A60204B214ADA601F4B87
:20192000204A1A611D4B204A5A611C4B1C4A9A611A4B1C4ADA61194B1B4A1A62174B184A5E
:201940005A62164B174A9A62144B174ADA62134B134A1A63114B134A5A63104B124A9A63AF
:20196000124B1A460023136053609360D360136153610E4B06221A700D4B00221A700D4BAC
:201980003C221A8000BFA837BD46B0BD78080120BCC90D081C74012034AF0D086474012064
:2019A000CD024C349C66E63C632773C360080120080901200A0901202DE9B04F8EB000AF03
:2019C000786287ED060B87ED041B87ED022B87ED003B4FF00002C64BC7E90C23C2A3D3E973
:2019E0000023C7E90A23D7E90023D7E90401FEF797FD02460B4610461946D7E90C23FEF784
:201A000047FF02460B4614461D46D7E90A23D7E90001FEF785FD02460B4610461946D7E9F7
:201A20000623FEF735FF02460B4620462946FEF779FD02460B4614461D46D7E90423D7E97E
:201A40000A01FEF76DFD02460B4610461946D7E90223FEF71DFF02460B4620462946FEF775
:201A600061FD02460B4614461D46D7E90A23D7E90A01FEF70DFF02460B4690469946D7E9EB
:201A80000023D7E90401FEF74BFD02460B4640464946FEF7FDFE02460B4690469946D7E975
:201AA0000423D7E90401FEF7F3FE02460B4692469B46D7E90A23D7E90001FEF731FD0246E9
:201AC0000B4650465946FEF7E3FE02460B4640464946FEF727FD02460B4690469946D7E9D5
:201AE0000023D7E90001FEF7D3FE02460B4692469B46D7E90423D7E90A01FEF711FD0246ED
:201B00000B4650465946FEF7C3FE02460B4640464946FEF707FD02460B4620462946FEF77F
:201B2000E1FF02460B46796AC1E90023D7E90423D7E90401FEF7ACFE02460B4614461D46DB
:201B4000D7E90023D7E90001FEF7A2FE02460B4620462946FEF7E4FC02460B4610461946BB
:201B6000D7E90C23FEF794FE02460B4614461D46D7E90023D7E90001FEF78AFE02460B46DF
:201B800090469946D7E90A23D7E90A01FEF780FE02460B4640464946FEF7C2FC02460B466B
:201BA00010461946D7E90623FEF772FE02460B4620462946FEF7B6FC02460B4614461D46B7
:201BC000D7E90A23D7E90A01FEF762FE02460B4690469946D7E90423D7E90401FEF758FEB3
:201BE00002460B4640464946FEF79AFC02460B4610461946D7E90223FEF74AFE02460B46A3
:201C000020462946FEF78EFC02460B4614461D46D7E90423D7E90401FEF73AFE02460B46A8
:201C200090469946D7E90023D7E90001FEF730FE02460B4640464946FEF772FC02460B467E
:201C400010461946D7E90A23FEF722FE02460B4690469946D7E90023D7E90001FEF718FED0
:201C600002460B4692469B46D7E90A23D7E90A01FEF70EFE02460B4650465946FEF750FC4A
:201C800002460B4610461946D7E90423FEF700FE02460B4640464946FEF744FC02460B46A0
:201CA00090469946D7E90A23D7E90A01FEF7F0FD02460B4692469B46D7E90423D7E90401D7
:201CC000FEF7E6FD02460B4650465946FEF728FC02460B4610461946D7E90023FEF7D8FD4A
:201CE00002460B4606E000BF00000000806EC1400000374040464946FEF714FC02460B468D
:201D000020462946FEF7EEFE02460B46796AC1E902237B6AD3E90001D7E90A23FEF7B8FD89
:201D200002460B4610461946D7E90A23FEF7B0FD02460B46D7E90C01FEF7F2FB02460B46E5
:201D400014461D467B6AD3E90201D7E90A23FEF79FFD02460B4620462946FEF7E1FB02461D
:201D60000B46796AC1E9042300BF3837BD46BDE8B08F00BF000000002DE9B04F9EB000AF78
:201D8000774B1B78062B00F2668201A252F823F0AD1D0808B51D0808EF2008082B210808AC
:201DA00069210808E9210808992108086C4B01221A7057E26B4B93F83F30002B40F09081EC
:201DC000684B93F83E30012B40F08A81654B93F83C30022B40F0D08007F1600300221A60A5
:201DE0005A609A60DA601A615A615E4BDB681846FEF7F6FC04460D465B4B1B6B1846FEF772
:201E0000EFFC80468946574B1B691846FEF7E8FC82468B46544B5B6B1846FEF7E1FC07F1BF
:201E2000600341EC130B4BEC12AB49EC118B45EC104B1846FFF7C0FDD7E918013CA3D3E91E
:201E40000023FEF7B5FF0346002B61D0D7E9180139A3D3E90023FEF78DFF0346002B57D061
:201E6000D7E91A0136A3D3E90023FEF7A1FF0346002B4DD0D7E91A0133A3D3E90023FEF724
:201E800079FF0346002B43D0D7E91C0130A3D3E90023FEF76FFF0346002B39D0D7E91C01F7
:201EA0002DA3D3E90023FEF783FF0346002B2FD0D7E9182310461946FEF7E2FF03462B4A45
:201EC000D360D7E91A2310461946FEF7D9FF0346264A1361D7E91C2310461946FEF7D0FFAB
:201EE0000346224A53611F4B012283F83F20012002F034FB0C231E4A00214FF4047005F06C
:201F000059FD1C4BDB6843F040031A4AD360E7E0144B022283F83F20022002F01FFB154B02
:201F2000DB6843F02003134AD360D9E0AFF30080D11EAE23AE66843E392E8535059A8E3E7B
:201F4000978F07CF420A973FB1AB451BB247A13F23A64412BD5068C09A7CB3CD8D3C72C0E9
:201F6000600801201C740120780801206474012070740120FC630120954B93F83C30032B03
:201F800040F0AA8007F1480300221A605A609A60DA601A615A618E4B9B691846FEF720FC98
:201FA00004460D468B4B9B6C1846FEF719FC80468946874BDB691846FEF712FC82468B469A
:201FC000844BDB6C1846FEF70BFC07F1480341EC130B4BEC12AB49EC118B45EC104B184654
:201FE000FFF7EAFCD7E912016DA3D3E90023FEF7DFFE0346002B61D0D7E912016AA3D3E930
:202000000023FEF7B7FE0346002B57D0D7E9140167A3D3E90023FEF7CBFE0346002B4DD04B
:20202000D7E9140164A3D3E90023FEF7A3FE0346002B43D0D7E9160161A3D3E90023FEF719
:2020400099FE0346002B39D0D7E916015EA3D3E90023FEF7ADFE0346002B2FD0D7E91223AD
:2020600010461946FEF70CFF03465B4A9361D7E9142310461946FEF703FF0346564AD36109
:20208000D7E9162310461946FEF7FAFE0346524A13624F4B012283F83F20012002F05EFA49
:2020A0000C234E4A00214FF4087005F083FC4C4BDB6843F080034A4AD36011E0444B02220E
:2020C00083F83F20022002F049FA454BDB6843F00803434AD36003E03D4B022283F83F2095
:2020E0003F4BDB6823F010033D4AD360BAE0384B002283F83D20364B002283F83F20344B20
:20210000012283F83E20324B002283F84020304B002283F84120334B03221A70304BDB68E5
:2021200043F010032E4AD3609CE0294B93F83F30012B40F09480264B93F84130022B40F08A
:202140008E80234B012283F83D20214B002283F83F201F4B002283F84120224B04221A701B
:20216000032002F0FBF97AE0194B93F83F30012B77D1174B93F84130012B72D1144B0022DC
:2021800083F83F20174B00221A70154BDB6843F01003134AD36064E0124B06221A7061E04A
:2021A000D11EAE23AE66843E392E8535059A8E3E978F07CF420A973FB1AB451BB247A13F4A
:2021C00023A64412BD5068C09A7CB3CD8D3C72C01C74012078080120647401207C740120BE
:2021E000FC63012060080120214B184648231A46002155F05DFA1E4B4FF07E521A601C4B2B
:202200004FF07E525A601A4B1A4ADA60184B1A4A1A61174B194A5A61154B164A9A61144B16
:20222000154ADA61124B154A1A62114B114A5A620F4B114A9A620E4B104ADA620C4B0D4A0B
:202240001A630B4B0C4A5A63094B0C4A9A630C4B01221A7006E00A4B05221A7002E000BF60
:2022600000E000BF00BF7837BD46BDE8B08F00BF64740120CD024C349C66E63C632773C37F
:202280006008012090B587B000AF03463960FB711346BB803B6804331B781B063B613B68DB
:2022A00005331B781B043A6913433B613B6806331B781B023A6913433B613B6807331B780E
:2022C0001A463B6913433B613B69594A93420BD03B69584A934207D03B69574A934203D032
:2022E0003B69564A934203D1554B01221A7002E0534B00221A700023FB828DE03B69A3F52F
:20230000A061FA8A4F4813469B0013449B0003441B6899427DD13B6808331B781BB21B026D
:202320001AB23B6809331B781BB21343FB81FA8A444913469B0013449B000B440633B3F995
:202340000030B7F90E209A420DDBFA8A3D4913469B0013449B000B440833B3F90030B7F9A5
:202360000E209A4215DDFA8A364913469B0013449B000B440833B3F90030002B09D00121EC
:20238000314802F047FD31494FF4F05002F0D8FD1DE0FA8A2B4913469B0013449B000B44A0
:2023A00010331B68002B0AD0FA8A264913469B0013449B000B4410331B68FA891A803B69A3
:2023C000A3F5A063FA891146184602F023FDFA8A1C4913469B0013449B000B440C331B6838
:2023E000002B1FD0FA8A174913469B0013449B000B440C331C68FA8A124913469B001344BD
:202400009B000B4410331968BB883A683869A04708E0FB8A0133FB828122FB8A9342FFF493
:202420006DAF00E000BF00BF1C37BD4690BD00BFCA070800CC070800580108005E01080044
:20244000BC0B012058CC0D08C00008007CAF0D0880B582B000AF0346FB710B46BB801346A3
:20246000BB71BB880F2B05D0BB88492B02D0BB88102B03D1104B01221A7002E00E4B00229E
:202480001A70BB883E2B02D9BB792C2B0FD8BB880A4ADB0013445B68002B08D0BB88074A96
:2024A000DB0013445B68BA79B988F879984700BF0837BD4680BD00BFBC0B01206CD60D0827
:2024C00080B500AF234B00221A7005F097FF0346002B0AD1204B1B78002B06D01F4B002299
:2024E0001A70032002F034FB33E0012005F0C2FF03461A461A4B1A701A4B01221A70184B17
:202500001B781949184605F0E1FF164B1B781946164802F07FFC05F071FF0346194614480C
:2025200002F078FC10494FF4E85002F009FD0021104802F06FFC05F061FF0346012B04D9EC
:2025400001210D4802F066FC03E000210A4802F061FC80BD8F640120BE0B0120F463012058
:20256000B20B012000000020BC0A0120CC000800CA000800D0000800CE00080080B483B0BB
:2025800000AF0346FB710B46BB801346BB71BB883E2B02D9BB792C2B03D8BB79052B00D1A4
:2025A00000BF00BF0C37BD465DF8047B7047000080B582B000AF0346FB710B46BB8013461C
:2025C000BB7110F0CDFDBB883E2B03D9BB792C2B00F2AA81B24B00221A70BB792C2B00F2AF
:2025E000A38101A252F823F09D260808DD260808132708084927080823290808D72608089E
:202600007F2708088B270808292908082929080823290808292908082929080829290808FC
:2026200029290808E5280808292908082929080829290808292908082929080829290808CF
:2026400029290808292908082929080829290808292908082929080829290808292908086A
:2026600029290808292908082929080829290808292908082929080829290808292908084A
:202680002929080829290808292908082929080829290808292908082B280808814BB3F814
:2026A0007630002B10D1804B93F83030002B0BD07D4B93F83030FF2B06D07C4B19221A706D
:2026C000032002F045FA2FE1784B01221A70032002F03EFA28E10EF0F3F825E1714BB3F87A
:2026E0007630002B10D1704B93F83030002B0BD06D4B93F83030FF2B06D06C4B19221A705D
:20270000032002F025FA0FE10121694802F082FB0AE1644BB3F87630002B10D1624B93F824
:202720003030002B0BD0604B93F83030FF2B06D05E4B19221A70032002F00AFAF4E0012120
:202740005C4802F067FBEFE0564BB3F87630002B10D1554B93F83030002B0BD0524B93F8FB
:202760003030FF2B06D0514B19221A70032002F0EFF9D9E00121504802F04CFBD4E0484BA8
:2027800001221A70FFF79CFECEE0474B93F83030002B04D0444B93F83030FF2B2AD1474BA1
:2027A00001225A8246494FF4605002F0C9FB44494FF4745002F0C4FB41494FF4625002F02C
:2027C000BFFB3F494FF4765002F0BAFB092200213A4854F06DFF394BB3F912309BB219466B
:2027E000384802F017FB314B18221A70032002F0AFF999E02B4BB3F87630002B06D02B4BA1
:202800001C221A70032002F0A3F98DE0274B19221A70032002F09CF9092200212A4854F0EF
:2028200047FF2A4B00221A707EE01E4BB3F87630022B09D01C4B93F83030002B04D01A4B5D
:2028400093F83030FF2B19D1184B22221A70032002F07EF914F01EF901211D4802F0DAFA54
:20286000104BB3F87830012B18D10121194802F0D1FA0021184802F0CDFA0FE00B4B0022B4
:202880001A70032002F064F90121144802F0C2FA13494FF4F05002F053FB45E044E000BFE9
:2028A000BE0B0120287201200C090120F4630120C6000800C4000800C2000800FC0F012035
:2028C00094AF0D089802080010100120BB0B0120B8010800BA010800B2010800C0000800CF
:2028E00098AF0D08124BB3F87630022B1BD0114B93F83030002B16D00E4B93F83030FF2BF0
:2029000011D00D4B00221A70032002F021F901210A4802F07FFA0A494FF4F05002F010FBF1
:2029200001E000BF00E000BF00BF0837BD4680BD287201200C090120F4630120C0000800E9
:2029400098AF0D0880B582B000AF0346FB710B46BB801346BB71BB883E2B02D9BB792C2B2D
:2029600057D8BB791E2B02D01F2B30D047E02B4BB3F87C30002B04D0284BB3F87C30022BA5
:2029800021D1264B0122A3F87C20244BB3F87C301946234802F03EFA0021224802F03AFA0F
:2029A0000021214802F036FA204B01221A70204BB3F9B230002B06D01D4B0022A3F8B22062
:2029C0001C480EF005FA1C4B00221A7017E0134B0022A3F87C20114BB3F87C30194610486B
:2029E00002F018FA124B1B7B002B03D001210E4802F010FA00210B4802F00CFA00BF0F4BE9
:202A000001221A7001230E4A002140F2DE3004F0D1FF00BF0837BD4680BD00BF28720120B0
:202A200014990800C20008000401080066000020A8720120280C01206571012090760120D6
:202A4000A472012080B582B000AF0346FB710B46BB801346BB71BB883E2B02D9BB792C2B51
:202A60004ED8BB790A2B4BD801A252F823F000BFFF2A0808012B0808012B0808FF2A0808FB
:202A80009D2A0808CB2A0808D12A0808FF2A0808FF2A0808D92A0808F72A08081A4B9B8811
:202AA00003F00203002B06D0184B3D221A70032002F04EF805E0154B02221A70032002F06E
:202AC00047F813480EF0E4FB1AE00DF0F9FE17E010480EF0BBFD13E00F4B93F84630002B13
:202AE00004D001210D4802F095F909E000210B4802F090F904E00A480FF0D4FB00E000BF90
:202B000000BF0837BD4680BDA8720120F4630120D40B0120E80B01201C7401205A0108009C
:202B2000780C012080B582B000AF0346FB710B46BB801346BB71BB883E2B02D9BB792C2B02
:202B400026D8BB79082B23D801A252F823F000BF8F2B08088F2B08088F2B08088F2B08082E
:202B60007B2B0808752B0808852B08088F2B08088F2B08080DF0A4FE0AE0074B022283F821
:202B80003C2005E0044B032283F83C2000E000BF00BF0837BD4680BD1C74012080B483B0B4
:202BA00000AF0346FB710B46BB801346BB7100BF0C37BD465DF8047B7047000080B582B0A9
:202BC00000AF0346FB710B46BB801346BB71BB883E2B03D9BB792C2B00F2B480BB79102BD8
:202BE00000F2B08001A252F823F000BF312C0808432D0808432D08085F2C0808452D08086A
:202C0000592C0808452D0808452D0808452D0808452D0808452D0808452D0808452D080891
:202C2000452D0808452D0808872C0808F92C0808464B002283F83D20444B002283F83F2082
:202C4000424B002283F83E20404B002283F841203F4B06221A7075E00DF032FE72E03B4BCD
:202C6000002283F83D20394B002283F83F20374B002283F83E20354B002283F84120344B60
:202C800006221A705EE0334B00221A702F4B012283F84220304B00221A802F4B00225A80F3
:202CA0002D4BB3F900309BB219462C4802F0B2F800212B4802F0AEF801212A4802F0AAF8B0
:202CC0000021294802F0A6F8204B012283F83D201E4B002283F83F201C4B002283F84020A3
:202CE0001A4B002283F84120184B012283F83E20174B04221A7025E0164B00221A700121CC
:202D0000184802F087F8114B002283F84220124B00221A80104B00225A800F4BB3F90030E1
:202D20009BB219460D4802F075F800210C4802F071F801210C4802F06DF8054B02221A7098
:202D400000E000BF00BF0837BD4680BD1C74012060080120B90A0120D00B0120CA020800A8
:202D6000600108005C0108005E01080080B582B000AF0346FB710B46BB801346BB71BB88FF
:202D80003E2B02D9BB792C2B25D8BB79052B22D801A252F823F000BFB12D0808BF2D080860
:202DA000C72D0808CF2D0808D72D0808B92D08080B480DF021FE0EE00DF082FD0BE00848E5
:202DC0000DF098FD07E006480DF016FE03E004480DF012FE00BF00BF0837BD4680BD00BF23
:202DE0000C0C012080B582B000AF0346FB710B46BB801346BB71BB883E2B02D9BB792C2BAC
:202E000050D8BB79082B4DD801A252F823F000BFA32E0808A32E0808A32E0808A32E0808BB
:202E2000932E0808352E08083B2E08089B2E08088B2E08080DF044FD34E01C4B0E221A70C0
:202E4000032001F085FE1A4B93F84430002B04D00121184801F0DEFF03E00021154801F0D6
:202E6000D9FF134B93F84530002B09D0124B93F88930002B04D00121104801F0CBFF11E052
:202E800000210E4801F0C6FF0CE00D480EF066FD08E00C480DF05AFE04E00B480DF0ACFDF5
:202EA00000E000BF00BF0837BD4680BDF46301201C74012052010800A87201205401080019
:202EC000300C01201C0C01200C0C012080B582B000AF0346FB710B46BB801346BB71BB88F4
:202EE0003E2B02D9BB792C2B45D8BB790F2B42D801A252F823F000BF392F0808472F0808A1
:202F00004F2F0808572F0808772F0808412F0808772F0808772F0808772F0808772F08087F
:202F2000772F0808672F08085F2F0808772F0808772F08086F2F080811480DF007FE1AE028
:202F40000DF0BEFC17E00E480DF0B2FD13E00C480DF0FCFD0FE00A480DF0F8FD0BE0094815
:202F60000EF01CFF07E008480FF084FF03E007480EF056FC00BF00BF0837BD4680BD00BF41
:202F80001C0C0120640C0120B80F0120F00B012080B483B000AF0346FB710B46BB801346A3
:202FA000BB7100BF0C37BD465DF8047B7047000080B582B000AF0346FB710B46BB801346A5
:202FC000BB71BB883E2B03D9BB792C2B00F2A080BB791D2B00F29C8001A252F823F000BF57
:202FE00059300808993008089F300808A5300808113108085F300808053108089130080893
:20300000653008081131080811310808FB3008081131080811310808113108080F310808E6
:2030200011310808113108081131080811310808AB300808B3300808BB300808C33008086C
:20304000CB300808D3300808DB300808E3300808EB300808F330080813F01CFD58E00DF065
:203060002FFC55E02C4BB3F87830022B02D12B4B2F225A70294B0E221A70284B0122DA7285
:20308000274B00221A700021264801F0C3FE3FE0224B16221A703BE013F0C2FB38E013F08D
:2030A000F9FC35E013F0F6FC32E0002010F0ECF82EE0012010F0E8F82AE0022010F0E4F8E4
:2030C00026E0032010F0E0F822E0042010F0DCF81EE0052010F0D8F81AE0062010F0D4F816
:2030E00016E0072010F0D0F812E0082010F0CCF80EE0092010F0C8F80AE002210A4801F0E6
:2031000089FE05E00121084801F084FE00E000BF00BF0837BD4680BD28720120A8F4012009
:2031200068E40120B8010800D001080080B582B000AF0346FB710B46BB801346BB71BB8869
:203140003E2B02D9BB792C2B55D8BB791B2B52D801A252F823F000BFC9310808D7310808EE
:20316000DF310808E7310808F7310808D1310808F7310808F7310808F7310808F7310808DD
:20318000F7310808F7310808F7310808F7310808F7310808F7310808F7310808F73108086F
:2031A000F7310808F7310808F7310808F7310808F7310808F7310808F7310808F73108084F
:2031C000F7310808EF3108080D480DF02BFD12E00DF076FB0FE00A480DF0F8FC0BE0084840
:2031E0000DF020FD07E006480DF01CFD03E004480DF0EEFD00BF00BF0837BD4680BD00BF97
:20320000280C012080B582B000AF0346FB710B46BB801346BB71BB883E2B02D9BB792C2B6B
:2032200049D8BB79132B46D801A252F823F000BF813208088F320808973208089F320808D0
:20324000B732080889320808B7320808B7320808B7320808A7320808B7320808B7320808E4
:20326000B7320808B7320808B7320808B7320808B7320808B7320808B7320808B532080888
:203280000F480DF0A5FD16E00DF01AFB13E00C480DF0D2FC0FE00A480DF09AFD0BE008480E
:2032A0000DF096FD07E0074B01225A8005480FF013FD00E000BF00BF0837BD4680BD00BF50
:2032C000280C01200C0E012080B582B000AF0346FB710B46BB801346BB71BB883E2B02D9FB
:2032E000BB792C2B25D8BB79052B22D801A252F823F000BF0D3308081B3308082333080815
:203300002B33080833330808153308080B480DF0BFFF0EE00DF0D4FA0BE008480DF0CCFDA9
:2033200007E006480DF0B4FF03E004480DF0B0FF00BF00BF0837BD4680BD00BFD40B012011
:2033400080B582B000AF0346FB710B46BB801346BB71BB883E2B03D9BB792C2B00F2F0801C
:20336000BB79162B00F2EC8001A252F823F000BFCD3308084135080841350808E933080873
:2033800041350808E33308084135080841350808413508084135080841350808413508085D
:2033A0004135080841350808413508084135080841350808413508080F3408082D35080824
:2033C00033350808413508083B3508085E494FF4645001F0B5FD5C494FF4785001F0B0FDE0
:2033E000AEE00DF06DFAABE0584B00221A7056494FF4645001F0A4FD53494FF4785001F041
:203400009FFD09220021524854F052F998E0504B93F90030002B09D101214E4801F0FAFC28
:203420004D494FF4F05001F08BFD89E04B4B1B781A464B4913469B001344DB009B1A0B444A
:2034400012331B78002B0DD0444B1B781A46444913469B001344DB009B1A0B4412331B787B
:20346000FF2B2CD13F4B1B221A70032001F070FB00213D4801F0CEFC00213C4801F0CAFC98
:20348000092200213A4854F013F909220021394854F00EF9314B1B781A46314913469B0019
:2034A0001344DB009B1A0B4424331B781946324801F0B0FC0121314801F0ACFC40E00922F7
:2034C00000212F4854F0F4F8244B1B781A46244913469B001344DB009B1A0B4412331B7853
:2034E0002A2B04D10121214801F094FC28E01D4B1A221A70032001F02BFB00211A4801F0B2
:2035000089FC0021194801F085FC144B1B781A46134913469B001344DB009B1A0B44243303
:203520001B781946144801F075FC09E011F0C4FA06E0074811F028FC02E011F007FC00BF34
:2035400000BF0837BD4680BD94AF0D08BF0B012010100120C0000800ACAF0D08BB0B01208A
:203560000C090120F4630120A2010800A40108002B100120221001209A020800A601080043
:203580001910012080B582B000AF0346FB710B46BB801346BB71BB883E2B02D9BB792C2BF3
:2035A00025D8BB79052B22D801A252F823F000BFC9350808D7350808DF350808E735080877
:2035C000EF350808D13508080B480EF03FF80EE00DF076F90BE008480DF0B6FF07E006489D
:2035E0000EF034F803E004480EF030F800BF00BF0837BD4680BD00BFE80B012080B582B015
:2036000000AF0346FB710B46BB801346BB71BB883E2B02D9BB792C2B37D8BB79082B34D8A1
:2036200001A252F823F000BF4D3608085B360808633608086B3608088B36080855360808D1
:20364000733608087B3608088336080811480EF085F91AE00DF034F917E00E480EF03EF9AC
:2036600013E00C480EF07AF90FE00A480EF076F90BE009480EF04AFA07E008480EF094FDA0
:2036800003E007480EF09CFC00BF00BF0837BD4680BD00BF300C0120380C0120440C012073
:2036A000540C012080B582B000AF0346FB710B46BB801346BB71BB883E2B02D9BB792C2B9B
:2036C00025D8BB79052B22D801A252F823F000BFE9360808F7360808FF36080807370808D1
:2036E0000F370808F13608080B480FF0C3FB0EE00DF0E6F80BE008480FF090FB07E006486A
:203700000FF0B8FB03E004480FF0B4FB00BF00BF0837BD4680BD00BFB80F012080B582B00F
:2037200000AF0346FB710B46BB801346BB71BB883E2B02D9BB792C2B25D8BB79052B22D8A7
:2037400001A252F823F000BF613708086F370808773708087F37080887370808693708084A
:203760000B480EF0D3F90EE00DF0AAF80BE008480EF014F907E006480EF0C8F903E0044836
:203780000EF0C4F900BF00BF0837BD4680BD00BF380C012080B582B000AF0346FB710B4631
:2037A000BB801346BB71BB883E2B02D9BB792C2B25D8BB79052B22D801A252F823F000BF1D
:2037C000D9370808E7370808EF370808F7370808FF370808E13708080B480EF0F1FB0EE08E
:2037E0000DF06EF80BE008480EF026FB07E006480EF0E6FB03E004480EF0E2FB00BF00BF70
:203800000837BD4680BD00BF540C012080B582B000AF0346FB710B46BB801346BB71BB88CA
:203820003E2B02D9BB792C2B25D8BB79052B22D801A252F823F000BF513808085F3808085F
:20384000673808086F38080877380808593808080B480EF0A3FA0EE00DF032F80BE0084864
:203860000EF096F907E006480EF098FA03E004480EF094FA00BF00BF0837BD4680BD00BF7F
:20388000640C012080B582B000AF0346FB710B46BB801346BB71BB883E2B02D9BB792C2BA9
:2038A00025D8BB79052B22D801A252F823F000BFC9380808D7380808DF380808E738080868
:2038C000EF380808D13808080B480EF06DFC0EE00CF0F6FF0BE008480EF0A2FB07E00648F4
:2038E0000EF062FC03E004480EF05EFC00BF00BF0837BD4680BD00BF440C012080B584B04F
:2039000000AF0346FB710B46BB801346BB71BB883E2B03D9BB792C2B00F20481BB79053B34
:203920001E2B00F2FF8001A252F823F0D3390808253B0808253B0808253B0808253B0808F1
:20394000253B0808253B0808253B0808253B0808253B0808253B0808253B0808253B0808E7
:20396000253B0808253B0808253B0808253B0808253B0808253B0808253B0808D939080815
:20398000773A0808253B0808253B0808253B08081B3B0808253B0808253B0808253B080860
:2039A000253B0808A9390808604B1A78604B1A705F4B1B780B2B00F0B4805D4B1B78112B25
:2039C00040F0AF805B4B1B6823F48023594A1360A7E00CF075FFA5E0574B1B78002B02D0E1
:2039E000FEF76EFD9EE0554B1B78184604F012FD0346FB73FB7B1F2B13D8504AFB7B137060
:203A00004F4B1B78013BDAB24D4B1A704C4B1B7819464C4801F0FEF9494B1B78012B09D15D
:203A200003E0474B01221A707CE00021464801F0F1F903E00121444801F0ECF904F0DEFC49
:203A400003461A463E4B1B789A4204D100213F4801F0E0F903E001213C4801F0DBF9374BAE
:203A60001B783B49184604F031FD39494FF4E85001F066FA56E0304B1B78002B02D0FEF72B
:203A80001FFD4FE02D4B1B78184604F0DBFC0346FB73FB7B1F2B17D8284AFB7B1370284B63
:203AA0001B780133DAB2264B1A70254B1B781946244801F0AFF904F0A1FC03461A46204BAC
:203AC0001B789A420CD106E004F098FC03461A461B4B1A7026E000211C4801F09BF903E0A0
:203AE00001211A4801F096F9154B1B78012B04D10021154801F08EF903E00121124801F088
:203B000089F90E4B1B781249184604F0DFFC10494FF4E85001F014FA04E00E4B00221A70F3
:203B200000E000BF1037BD4680BD00BFFA630120BA0B0120FC6301208F640120B20B0120CA
:203B400000000020CC000800D0000800CE000800BC0A0120BE0B012080B582B000AF034693
:203B6000FB710B46BB801346BB71BB883E2B03D9BB792C2B00F2D780BB79002B02D0052B0B
:203B80006BD0D0E06A4B93F83E30012B03D0694B1B78002B05D0674B00221A70032000F0D5
:203BA000D7FF654B1B781C2B40F0BA80604B93F83C30022B0DD15E4B93F84430002B04D0E7
:203BC00001215E4801F026F903E000215B4801F021F9574B93F83C30032B12D1544B93F887
:203BE0004530002B09D0564B93F88930002B04D00121544801F00EF903E00021514801F024
:203C000009F9514B01221A70504B00221A804F4B00225A804D4BB3F900309BB219464C48B8
:203C200001F0F8F8494BB3F902309BB21946494801F0F0F83E4B002283F83D203C4B0022EF
:203C400083F83E203A4B002283F84120424B06221A70424B01221A7062E0354B93F83E30D4
:203C6000012B02D1032000F073FF334B1B781C2B58D12F4B93F83C30022B0DD12C4B93F8C1
:203C80004430002B04D001212C4801F0C3F803E000212A4801F0BEF8254B93F83C30032BBD
:203CA00012D1234B93F84530002B09D0244B93F88930002B04D00121224801F0ABF803E0FA
:203CC0000021204801F0A6F81F4B01221A701F4B00221A801D4B00225A801C4BB3F90030E8
:203CE0009BB219461A4801F095F8184BB3F902309BB21946174801F08DF80D4B002283F881
:203D00003D200B4B002283F83E20094B002283F84120114B06221A70104B01221A7001E0AC
:203D200000BF00E000BF00BF0837BD4680BD00BF1C740120BF0B0120F463012052010800B9
:203D4000A872012054010800BC0B0120D00B0120CA020800CC02080060080120B90A0120D0
:203D600080B582B000AF0346FB710B46BB801346BB71BB883E2B02D9BB792C2B67D8BB79E2
:203D8000052B64D801A252F823F000BFA53D0808DF3D0808E73D08081B3E08084F3E0808A0
:203DA000D93D08082C494FF4605001F0C9F82A494FF4745001F0C4F827494FF4625001F046
:203DC000BFF825494FF4765001F0BAF809220021224853F06DFC3AE00CF072FD37E01F48AD
:203DE00012F0DEF933E01C494FF4605001F0A8F819494FF4745001F0A3F817494FF46250A4
:203E000001F09EF814494FF4765001F099F809220021124853F04CFC19E00F494FF46050BE
:203E200001F08EF80C494FF4745001F089F80A494FF4625001F084F807494FF4765001F03E
:203E40007FF809220021054853F032FC00BF00BF0837BD4680BD00BF94AF0D08FC0F0120A1
:203E600080B582B000AF0346FB710B46BB801346BB71BB883E2B02D9BB792C2B35D8BB7913
:203E8000082B32D801A252F823F000BFE53E0808E53E0808E53E0808BF3E0808E53E08084D
:203EA000B13E0808B73E0808DD3E0808E53E08080CF006FD19E00F4B01221A7015E00D4B54
:203EC00000221A700C4BB3F87630002B0CD10B4B00221A70032000F03BFE05E0084811F002
:203EE0006DF902E000BF00E000BF00BF0837BD4680BD00BFBF0B012028720120F463012001
:203F0000E40F012080B582B000AF0346FB710B46BB801346BB71BB883E2B03D9BB792C2B9E
:203F200000F29E80BB79122B00F29A8001A252F823F000BF813F0808A33F0808AB3F080879
:203F4000B33F080861400808893F0808BB3F08088F3F0808034008082B4008085B40080875
:203F60005B40080861400808614008086140080861400808614008086140080831400808EF
:203F800039480EF08FF96BE00CF09AFC68E0374B1F221A70032000F0DBFD35480CF018FF2D
:203FA0005EE031480EF030F95AE02F480EF07AF956E02D480EF076F952E02E494FF460504D
:203FC00000F0BEFF2B494FF4745000F0B9FF29494FF4625000F0B4FF26494FF4765000F09F
:203FE000AFFF09220021244853F062FB224BB3F912309BB21946214800F00CFF11F0AAF8AD
:204000002EE012F047FD01211D4800F003FF1D4BB3F87830012B22D101211B4800F0FAFE8C
:2040200000211A4800F0F6FE19E012F0DDFE17E00E4B00221A70032000F08AFD012114482F
:2040400000F0E8FE0021134800F0E4FE172000F01FFE182000F01CFE02E000BF00E000BF76
:2040600000BF0837BD4680BD780C0120F4630120280C012094AF0D08FC0F0120980208006A
:20408000B801080028720120BA010800B2010800BE000800E801080080B584B000AF03460E
:2040A000FB710B46BB801346BB71BB883E2B03D9BB792C2B00F2AA80BB79142B00F2A680C9
:2040C00001A252F823F000BF0B4208080B4208080B4208080B420808894108081D41080865
:2040E000234108083D4108086F4108080D4208080D420808434108080D4208080D420808EE
:204100000D4208080D4208080D4208080D4208080D4208080D420808694108080CF0D0FBE4
:2041200074E001213B4800F075FE01213A4800F071FE0021394800F06DFE67E005F0CCFA21
:2041400064E0374B00221A70364B00221A700021354800F05FFE0021344800F05BFE0021CE
:20416000334800F057FE51E005F098FA4EE00121284800F04FFE0121274800F04BFE0021DF
:20418000264800F047FE41E02A4B1B78002B02D0284B01221A70274B02229A70264835F003
:2041A00009FF0023FB7314E0FB7B4FF4867202FB03F3224A1344184600F04AF8FB7B204A9B
:2041C00052F823301F49184600F0BAFEFB7B0133FB73FB7B0B2BE7D91F2000F059FD1E208D
:2041E00000F056FD222000F053FD174B2D221A70032000F0ADFC4FF480720021134853F00F
:2042000057FA124B2F221A7000E000BF00BF1037BD4680BDBA000800E4010800E601080092
:20422000B30B0120B40B0120AA010800BC000800AC0108004CDA0320C0AF0D084818032043
:204240004C02002088780120F46301207800002080B584B000AF78607B68002B03D1114B91
:2042600000221A701BE0FE2279680E4853F044FA0C4B002283F8FE202E210A4853F04FFA80
:20428000F860FB68002B07D0FB68064A934205D0FB6800221A7002E000BF00E000BF10376E
:2042A000BD4680BD8878012080B582B000AF0346FB710B46BB801346BB71BB883E2B03D939
:2042C000BB792C2B00F22A81BB790E2B00F2268101A252F823F000BF1543080841430808F5
:2042E0005D440808B54408081D4508083B4308081D4508081D4508081D4508081D4508083C
:204300001D4508081D4508081D4508081D45080813450808834B002283F83D20814B0022B7
:2043200083F83E207F4B002283F841207E4B06221A707E4B01221A70F0E00CF0C1FAEDE097
:20434000784B93F83C30022B04D1764B93F84430002B09D1734B93F83C30032B73D1714BF9
:2043600093F84530002B6ED06E4B93F84230002B2DD06F4BB3F90230312B1EDC6C4BB3F9A5
:2043800002306C4A934218DB664B012283F841200321694800F03EFD68494FF4F05000F099
:2043A000CFFDBB88DAB2664B1A70614B00225A805C4B93F83C30022B44E001215E4800F0D8
:2043C00029FD60494FF4F05000F0BAFD45E0584BB3F90230F92B2BDC554BB3F90230554AF6
:2043E000934225DB524BB3F90030002B20DA504BB3F900304F4A93421ADB4B4B1B78042B18
:2044000016D1484B012283F8412003214A4800F001FD4A494FF4F05000F092FD484B0E2227
:204420001A70434B00225A80414B00221A8009E00121414800F0EEFC42494FF4F05000F0B4
:204440007FFD0AE009E001213B4800F0E3FC3E494FF4F05000F074FD60E05FE03B4B002207
:204460001A703B4B3C221A80314B00221A80304B00225A802E4BB3F900309BB21946354807
:2044800000F0C8FC2A4BB3F902309BB21946324800F0C0FC234B002283F83D20214B00224D
:2044A00083F83F201F4B002283F841201E4B02221A7033E0254B00221A70254B3C221A800C
:2044C0001B4B00221A801A4B00225A80184BB3F900309BB219461F4800F09CFC144BB3F974
:2044E00002309BB219461C4800F094FC0D4B002283F83D200B4B002283F83E20094B0022E1
:2045000083F84120084B06221A70084B01221A7004E0044B012283F83C2000BF00BF0837D0
:20452000BD4680BD1C74012060080120B90A0120D00B012068F7FFFFC0000800C4AF0D0874
:20454000F4630120E4AF0D08F8AF0D08BD0B01200A090120CA020800CC02080080B582B051
:2045600000AF0346FB80FB88022B2BD1324B1B78002B17D1314B93F83C30012B03D1304B0B
:2045800011221A7002E0032000F0E2FA01212D4800F040FC2C494FF4F05000F0D1FC284BA2
:2045A0000E221A70244B00221A700021274800F031FC0021264800F02DFC0021254800F053
:2045C00029FC34E0FB88012B22D11B4B1B78002B0ED1032000F0BCFA02211A4800F01AFCA9
:2045E0001D494FF4F05000F0ABFC154B0E221A70114B00221A700021144800F00BFC002184
:20460000134800F007FC0021124800F003FC0EE0FB88032B0BD1114BB3F902309BB2194681
:204620000A4800F0F7FB01210A4800F0F3FB00BF0837BD4680BD00BFB90A01201C74012062
:20464000F4630120C000080004B00D08CC0208005C010800600108001CB00D08D00B0120D0
:2046600080B582B000AF0346FB710B46BB801346BB71BB883E2B03D9BB792C2B00F2E180F8
:20468000BB790E2B00F2DD8001A252F823F000BFCD460808DB460808E3460808EB460808D1
:2046A00043480808D54608084348080843480808434808084348080843480808F3460808E4
:2046C000474708089B470808EF4708085F480DF0A7F8B6E00CF0F4F8B3E05C480DF016F801
:2046E000AFE05A480DF09CF8ABE058480DF098F8A7E0574B01221A70544BB3F91020534B51
:204700005A83524BB3F91A309AB2524BA3F87021504BB3F8703119464F4800F07BFB4D4B39
:20472000B3F8703119464D4800F074FB474BB3F91A309BB219464A4800F06CFB012149480A
:2047400000F068FB7DE0424B02221A703F4BB3F912203E4B5A833D4BB3F91A309AB23D4B4E
:20476000A3F870213B4BB3F8703119463A4800F051FB384BB3F870311946384800F04AFB3B
:20478000324BB3F91A309BB21946354800F042FB0121344800F03EFB53E02D4B03221A702F
:2047A0002A4BB3F91420294B5A83284BB3F91A309AB2284BA3F87021264BB3F870311946E3
:2047C000254800F027FB234BB3F870311946234800F020FB1D4BB3F91A309BB21946204859
:2047E00000F018FB01211F4800F014FB29E0184B04221A70154BB3F91620144B5A83134B36
:20480000B3F91A309AB2134BA3F87021114BB3F870311946104800F0FDFA0E4BB3F87031E1
:2048200019460E4800F0F6FA084BB3F91A309BB219460B4800F0EEFA01210A4800F0EAFA7B
:2048400000BF00BF0837BD4680BD00BFF00B0120C10B0120A8720120F0030800F00808005D
:20486000F2030800B600080080B582B000AF0346FB710B46BB801346BB71BB883E2B02D91A
:20488000BB792C2B56D8BB79132B53D12B4B1B78012B10D12A4BB3F91820294B1A82284BD7
:2048A000B3F918309BB21946264800F0B3FA234B00221A703DE0214B1B78022B10D1204B9E
:2048C000B3F918201E4B5A821D4BB3F918309BB219461D4800F09EFA184B00221A7028E0A3
:2048E000164B1B78032B10D1154BB3F91820144B9A82134BB3F918309BB21946134800F0AD
:2049000089FA0E4B00221A7013E00C4B1B78042B0FD10B4BB3F91820094BDA82084BB3F93A
:2049200018309BB219460A4800F074FA034B00221A7000BF00BF0837BD4680BDC10B0120EF
:20494000F00B0120E8030800EA030800EC030800EE03080080B483B000AF0346FB710B4647
:20496000BB801346BB71064B1B889BB201339AB2034B1A8000BF0C37BD465DF8047B70473E
:20498000CE0B012080B483B000AF78601F4B1B7819461F4A0B465B000B449B001344083342
:2049A0001B78012B25D1194B1B781946184A0B465B000B449B0013441B781A467B689342F2
:2049C0000CD1124B1B780133DAB2104B1A70114B1B6823F001030F4A136010E00B4B1A78CB
:2049E0000D4B1A700B4B1B6843F00103094A136005E0064B1B780133DAB2044B1A7000BFDE
:204A00000C37BD465DF8047B704700BF35100120ECDA0D08FC6301203610012080B582B077
:204A200000AF0023FB80454B1B780322934207D3424B00221A70424B00221A70022379E042
:204A40003F4B1B78002B07D03D4B1A783B4B1B789A4201D001236DE0FB885A1CFA801A4613
:204A6000384BAA2199540323FB80354B1B781946FB885A1CFA801846334A0B465B000B449F
:204A80009B0013441A782F4B1A542D4B1B7819462D4A0B465B000B449B00134404331B6822
:204AA000FA8828490A441046984703461A46FB881344FB80FB885A1CFA801A46214BCC2156
:204AC0009954FB885A1CFA801A461E4B33219954FB88013B1B12DAB21A4B5A70FB88DBB2B5
:204AE000013BDAB2174B9A70FB88033B1946174801F050F90346BB80FB885A1CFA801A4672
:204B0000BB88D9B20F4B9954BB881B0A99B2FB885A1CFA801A46C9B20A4B9954FB8819465B
:204B2000084800F07DFD064B1B780133DAB2044B1A70012318460837BD4680BD35100120D7
:204B40003610012038100120ECDA0D083B10012080B584B000AF0346FB710023FB810522AB
:204B6000FB79934280F08780FB895A1CFA811A46434BAA2199540323FB81FA79FB89591C4C
:204B8000F98118463F4913010B441A783C4B1A54FB793C4A1B01134404331B68002B11D098
:204BA000FB79384A1B01134404331B68FA8934490A441046984703467B737B7B9AB2FB8952
:204BC0001344FB81FB895A1CFA811A462C4BCC219954FB895A1CFA811A46294B3321995452
:204BE000FB89013B1B12DAB2254B5A70FB89DBB2013BDAB2224B9A70FB89033B1946224827
:204C000001F0C8F803467B81FB895A1CFA811A467B89D9B21A4B99547B891B0A99B2FB89F0
:204C20005A1CFA811A46C9B2154B9954FB79154A1B0113440C331B68002B16D0FB79114A73
:204C40001B0113440C331B681B78002B05D00F4B1B780133DAB20D4B1A70FB79094A1B011A
:204C600013440C331B6801221A70FB891946044800F0D6FC00E000BF1037BD4680BD00BF98
:204C8000381001206CD80D083B1001203710012080B584B000AF0346FB710023FB812322CD
:204CA000FB79934280F0AC80FB895A1CFA811A46554BAA2199540323FB81FB895A1CFA81CB
:204CC0001A46514B82219954FB79504A1B0113441B68190EFB895A1CFA811A46C9B24A4B38
:204CE0009954FB79494A1B0113441B68190CFB895A1CFA811A46C9B2434B9954FB79434AD9
:204D00001B0113441B68190AFB895A1CFA811A46C9B23D4B9954FB793C4A1B0113441968C7
:204D2000FB895A1CFA811A46C9B2374B9954FB79364A1B01134404331A78FB89591CF98111
:204D400019465308DAB2304B5A54FB792F4A1B01134408331B68002B18D0FB792B4A1B01AE
:204D6000134408331B68FA8927490A441046984703467B73FB89013B7A7B5208D1B2224A73
:204D8000D1547B7B9AB2FB891344FB81FB895A1CFA811A461C4BCC219954FB895A1CFA81CA
:204DA0001A46194B33219954FB89013B1B12DAB2154B5A70FB89DBB2013BDAB2124B9A700B
:204DC000FB89033B1946124800F0E4FF03467B81FB895A1CFA811A467B89D9B20A4B99549A
:204DE0007B891B0A99B2FB895A1CFA811A46C9B2054B9954FB891946034800F011FC00E0A7
:204E000000BF1037BD4680BD38100120BCD80D083B10012080B584B000AF78600B467B8092
:204E20000023FB81FB895A1CFA811A46424BAA2199540323FB81FB895A1CFA811A463E4BB9
:204E4000822199547B68190EFB895A1CFA811A46C9B2394B99547B68190CFB895A1CFA817A
:204E60001A46C9B2344B99547B68190AFB895A1CFA811A46C9B2304B9954FB895A1CFA81B8
:204E80001A467B68D9B22C4B9954FB895A1CFA811A46294B012199547B881B0A99B2FB8991
:204EA0005A1CFA811A46C9B2234B9954FB895A1CFA811A467B88D9B21F4B9954FB895A1C17
:204EC000FA811A461C4BCC219954FB895A1CFA811A46194B33219954FB89013B1B12DAB2C3
:204EE000154B5A70FB89DBB2013BDAB2124B9A70FB89033B1946114800F04CFF0346BB810E
:204F0000FB895A1CFA811A46BB89D9B20A4B9954BB891B0A99B2FB895A1CFA811A46C9B2A7
:204F2000054B9954FB891946034800F079FB00BF1037BD4680BD00BF381001203B100120C8
:204F400080B584B000AF786039600023FB8100237B73FB895A1CFA811A46434BAA219954FD
:204F60000323FB81FB895A1CFA811A463E4B422199547B68190EFB895A1CFA811A46C9B287
:204F8000394B99547B68190CFB895A1CFA811A46C9B2354B99547B68190AFB895A1CFA8160
:204FA0001A46C9B2304B9954FB895A1CFA811A467B68D9B22C4B995400237B7311E0FB8981
:204FC0005A1CFA811A463B681978274B99543B681B78002B0AD07B7B01337B733B680133C3
:204FE0003B6097F90D30002BE9DA00E000BFFB895A1CFA811A461C4BCC219954FB895A1CAC
:20500000FA811A46184B33219954FB89013B1B12DAB2154B5A70FB89DBB2013BDAB2124B38
:205020009A70FB89033B1946104800F0B3FE03467B81FB895A1CFA811A467B89D9B20A4B4E
:2050400099547B891B0A99B2FB895A1CFA811A46C9B2054B9954FB891946034800F0E0FA6A
:2050600000BF1037BD4680BD381001203B10012080B582B000AF0023FB80844B1B780222DB
:20508000934207D3814B00221A70814B00221A70042351E17E4B1B78002B07D07C4B1A7861
:2050A0007A4B1B789A4201D0052345E1FB885A1CFA801A46774BAA2199540323FB80744BF0
:2050C0001B781946744A0B469B000B449B0013440C331B78002B07D1FB885A1CFA801A464B
:2050E0006C4B8221995434E0FB885A1CFA801A46684B83219954664B1B781946664A0B469A
:205100009B000B449B00134410331B68002B20D05F4B1B781946604A0B469B000B449B00B6
:20512000134410331B681B78002B05D05B4B1B780133DAB2594B1A70554B1B781946564A66
:205140000B469B000B449B00134410331B6801221A704F4B1B7819464F4A0B469B000B444F
:205160009B0013441B68190EFB885A1CFA801A46C9B2484B9954464B1B781946464A0B4661
:205180009B000B449B0013441B68190CFB885A1CFA801A46C9B23F4B99543D4B1B7819464C
:2051A0003D4A0B469B000B449B0013441B68190AFB885A1CFA801A46C9B2364B9954344B5A
:2051C0001B781946344A0B469B000B449B0013441968FB885A1CFA801A46C9B22D4B9954FE
:2051E0002B4B1B78022B13D1294B1B7819462A4A0B469B000B449B00134404331A78FB8842
:20520000591CF98019469308DAB2224B5A5412E01F4B1B781946204A0B469B000B449B0071
:20522000134404331A78FB88591CF98019465308DAB2184B5A54164B1B781946164A0B4682
:205240009B000B449B00134408331B68002B33D00F4B1B781946104A0B469B000B449B000A
:20526000134408331B68FA880A490A441046984703467B71064B1B78012B11D1FB88013BDB
:205280007A799208D1B2034AD15410E035100120361001203810012010DB0D0837100120FE
:2052A000FB88013B7A795208D1B2254AD1547B799AB2FB881344FB80FB885A1CFA801A4663
:2052C0001F4BCC219954FB885A1CFA801A461C4B33219954FB88013B1B12DAB2184B5A706A
:2052E000FB88DBB2013BDAB2154B9A70FB88033B1946144800F04EFD03467B80FB885A1C78
:20530000FA801A467B88D9B20D4B99547B881B0A99B2FB885A1CFA801A46C9B2084B9954DF
:20532000FB881946064800F07BF9074B1B780133DAB2054B1A70052318460837BD4680BD55
:20534000381001203B1001203610012080B483B000AF7860054B1B780133DAB2034B1A70A8
:2053600000BF0C37BD465DF8047B70473510012080B584B000AF78600023FB81FB895A1CAE
:20538000FA811A46354BAA2199540323FB81FB895A1CFA811A46314B432199547B68190EAC
:2053A000FB895A1CFA811A46C9B22C4B99547B68190CFB895A1CFA811A46C9B2274B995482
:2053C0007B68190AFB895A1CFA811A46C9B2234B9954FB895A1CFA811A467B68D9B21F4B6F
:2053E0009954FB895A1CFA811A461C4BCC219954FB895A1CFA811A46184B33219954FB89AD
:20540000013B1B12DAB2154B5A70FB89DBB2013BDAB2124B9A70FB89033B1946104800F0C4
:20542000B9FC0346BB81FB895A1CFA811A46BB89D9B20A4B9954BB891B0A99B2FB895A1C9E
:20544000FA811A46C9B2054B9954FB891946034800F0E6F800BF1037BD4680BD381001200E
:205460003B10012080B483B000AF78607B681A887B685B889A4201D100231DE07B681A8834
:205480007B685B889A4206D97B681A887B685B88D31A9BB210E07B681A887B685B889A42EF
:2054A00009D27B681A887B685B88D31A9BB203F500539BB200E0002318460C37BD465DF8F8
:2054C000047B704780B582B000AF78607868FFF7C9FF0346C3F500539BB218460837BD46C9
:2054E00080BD80B483B000AF78600B467B807B685B881A467B881344B3F5005F0ADB7B68E6
:205500005A887B8813449BB2A3F500539AB27B685A8006E07B685A887B8813449AB27B68DA
:205520005A8000BF0C37BD465DF8047B704780B586B000AFF860B9601346FB80F868FFF74C
:20554000C1FF03461A46FB88934201D9002323E00023FB821BE0FB681B881946BB681A78D5
:20556000FB680B445A71BB680133BB60FB681B8801339AB2FB681A80FB681B88B3F5005FAC
:2055800002D3FB6800221A80FB8A0133FB82FA8AFB889A42DFD3FB8818461837BD4680BDDC
:2055A00080B586B000AFF860B9601346FB80F868FFF758FF0346BB820023FB82BB8A002B49
:2055C00001D1002327E00023FB821BE0FB685B881A46FB6813445A79BB681A70BB680133FD
:2055E000BB60FB685B8801339AB2FB685A80FB685B88B3F5005F02D3FB6800225A80FB8A87
:205600000133FB82FA8ABB8A9A4203D2FA8AFB889A42DBD3FB8A18461837BD4680BD00005C
:2056200080B584B000AF78600B467B807B881A4679681048FFF77BFF0346FB81FA897B88D7
:205640009A420CD00C4B1B6843F400230A4A13600A4B01221A700A4B01221A7005E0064B5D
:205660001B6823F40023044A1360FB8918461037BD4680BD40320120FC630120020000200E
:205680004862012080B500AF0F4B00221A800E4B00225A800C4B00221A710C4B00221A80D9
:2056A0000A4B00225A80094B00221A714FF480620749084831F003F80346002B02D0064B20
:2056C00001221A7000BF80BD381201204032012048520120D80A03204862012080B586B02D
:2056E00000AFF860B9601346FB800023FB82FB685B88BB82FB88002B01D1002388E0464BF7
:205700001B88002B21D10023FB821AE0BB8AFA6813445B79AA2B08D13F4B01221A80FB8AE3
:205720001946F868FFF7DDFE0FE0BB8A0133BB82BB8AB3F5005F01D30023BB82FB8A0133FB
:20574000FB82FA8AFB889A42E0D3334B1B88002B5DD057E0BB8AFA6813445B79CC2B45D1A7
:20576000BB8A0133C3F30C03FA6813445B79332B3CD1FB685B880333FA6813445A1DFB8AC2
:20578000013B1946104600F005FB03467B827B8A1B0A9BB27B747B8A3B74BB8A0233FA68EC
:2057A00013445B793A7C9A4216D1BB8A0333FA6813445B797A7C9A420ED1FB8A04339BB283
:2057C0001A46B968F868FFF7EBFE134B00221A80FB8A04339BB21BE0FB8A02339BB2194685
:2057E000F868FFF77EFE0C4B00221A80BB8A0133BB82BB8AB3F5005F01D30023BB82FB8A09
:205800000133FB82FA8AFB88033B9A42A2DB002318461837BD4680BD5C62012080B582B0E3
:2058200000AF78600B467B807B6803331B78832B4AD0832B00F39580792B00F39280782B1F
:2058400069DA432B32DC302BC0F28B80303B132B00F2878001A252F823F000BF4B5908085C
:205860006359080863590808635908086359080863590808635908086359080863590808C8
:2058800063590808635908086359080863590808635908080F5908086359080863590808FC
:2058A0006359080863590808D1580808772B58D12E4B00221A807B6803331B787A88796888
:2058C0001846FCF7DFFC4DE0284B00221A8049E07B68043305221946254851F00DFF25494F
:2058E000234851F032FF0346002B06D1224BDB6843F40033204AD36005E01F4BDB6823F420
:2059000000331D4AD360194B00221A802AE0174B00221A8026E0154B00221A807B68033337
:2059200018787B6804331B781BB21B021AB27B6805331B781BB213431BB299B27B6806336F
:205940001B781A46FCF784FD0CE07B6803331B787A887968184600F0E9F9084B00221A8026
:2059600000E000BF00BF0837BD4680BD5A620120FFF7012034B00D08FC63012062710120E9
:2059800080B582B000AF0B48FFF76CFD03461A4609490848FFF7A2FE0346FB80FB88002BEC
:2059A00004D0FB8819460448FFF738FF00BF0837BD4680BD38120120485E012080B582B0E1
:2059C00000AF0023FB80534B1B78DBB2002B0ED051482EF000FA4FF4806250494E4830F08E
:2059E0006EFE0346002B02D14A4B00221A704C4B1B78DBB2002B49D00023BB80484B0022A5
:205A00001A70484B1A68484B1B689A420BD2454B1B689AB2444B1B689BB2D31A9BB203F528
:205A20008063BB8007E03F4B1B689AB23E4B1B689BB2D31ABB80BB88002B23D0BB88B3F53B
:205A4000806F1FD200237B8012E07A88354B1B68D31A03F58063C3F309027B882F49895C68
:205A60002E4A13440A4683F800247B8801337B807A88BB889A42E8D3BB881A462B492C48CF
:205A8000FFF755FD284B1B68264A13602948FFF7E9FC0346FB80FB88002B37D0264B1B781C
:205AA000DBB2002B03D1254B1B68002B2ED0224B00221A70FB88B3F5806F02D94FF480630A
:205AC000FB80FB881A461E491A48FFF769FD1B4A41F28831082006F061F8FB881A46184937
:205AE0000D482DF0A3FF0346002B09D0154B1B6843F40023134A13600F4B01221A7005E04C
:205B0000104B1B6823F400230E4A136000BF0837BD4680BD48620120D80A032048520120D9
:205B2000030000204C620120506201204856012038120120403201200200002054620120EA
:205B4000485A0120FC63012080B582B000AF0023FB800A48FFF786FC0346FB80FB88002B12
:205B600008D0FB88B3F5806F02D94FF48063FB80FFF706FF00BF0837BD4680BD3812012013
:205B800080B483B000AF78607B68114A934203D1104B01221A7015E07B680F4A934209D148
:205BA0000E4B0122DA720E4B0122DA720C4B0D221A7007E07B680B4A934203D10A4B012205
:205BC00083F8372000BF0C37BD465DF8047B7047D80A03204862012048090320A8F4012062
:205BE00050080120100A0320D06F012080B582B000AF78600B467B807B68254A93420AD153
:205C00007B68B3F85E309BB21A46224B1A60224B01221A7038E07B68204A934225D1204B1F
:205C200001221A731F4B01221A737B881E4A53611E4B1B88B3F5205F09D21C4B1B881A4603
:205C40001B4B13447A881B49184651F022FE174B1A887B8813449AB2144B1A804FF420520A
:205C600014490E4830F0DBFC0EE07B68124A93420AD17B68B3F85E309BB21A460F4B1A6000
:205C80000F4B012283F8312000BF0837BD4680BDD80A03205062012003000020480903200E
:205CA000A8F4012050080120B8F40120E0E4012068BC012068940120100A032008700120C4
:205CC000D06F012080B483B000AF78607B68104A934203D10F4B01221A7012E07B680E4A5C
:205CE000934206D10D4B01225A730D4B01225A7307E07B680B4A934203D10B4B012283F8AC
:205D0000302000BF0C37BD465DF8047B704700BFD80A03200200002048090320A8F401208C
:205D200050080120100A0320D06F012080B582B000AF03463960FB711346BB80054B1B7872
:205D4000002B03D1FB791846FEF71CFE00BF0837BD4680BD4871012080B483B000AF0346EC
:205D60003960FB80FA883B6842FA03F31AB23B68013B4FF4004141FA03F31BB2DB431BB2A0
:205D800013401BB29BB218460C37BD465DF8047B7047000080B584B000AF786039604FF699
:205DA000FF73FB8112E0FB8908211846FFF7D4FF03461846FA897B68591C79601B785340AE
:205DC000DBB2074A32F813304340FB813B685A1E3A60002BE7DCFB8918461037BD4680BD6D
:205DE00038DB0D0880B485B000AF0346FB80FB88FB81FB891B0ABB81B7F90E301B021AB2E4
:205E0000B7F90C3013431BB2BB81B7F90C3018461437BD465DF8047B704780B485B000AFFC
:205E200078607B68FB60FB681B0EBB60FB681B0C1B029BB2BA681343BB60FB681B0A1B0477
:205E400003F47F03BA681343BB60FB681B06BA681343BB60BB6818461437BD465DF8047B7C
:205E6000704780B483B000AF7860002318460C37BD465DF8047B704780B485B000AF78603B
:205E80000D4A07F1080392E8030018600433198002330A0C1A707B681A4607F10803186848
:205EA000106099889B7991809371072318461437BD465DF8047B70473CB00D0880B485B05D
:205EC00000AF7860194BB3F9A230002B04D102233B7358237B7317E0144BB3F9A230012B1D
:205EE00004D104233B73B0237B730DE00F4BB3F9A230022B04D107233B7308237B7303E09C
:205F000000233B7300237B730123BB737B681A4607F10C0319889B78118093700323184637
:205F20001437BD465DF8047B704700BFA872012080B483B000AF78607B685A1C7A6000224B
:205F40001A70054B1A787B681A70022318460C37BD465DF8047B7047F463012080B485B033
:205F600000AF7860104B1B783B72104B1B787B720F4B1B78BB720F4B1B78FB720E4B1B78C4
:205F80003B730E4B1B787B737B681A4607F10803186810609B889380062318461437BD4638
:205FA0005DF8047B704700BF58710120597101205A7101205B7101205C7101205D7101200C
:205FC00080B582B000AF7860134BB3F900301846FFF708FF03461A46104B1A800E4BB3F99B
:205FE00002301846FFF7FEFE03461A460B4B5A80094BB3F904301846FFF7F4FE03461A4623
:20600000064B9A8006220549786851F042FC062318460837BD4680BDE80B0120DC620120C7
:2060200080B582B000AF78604A4BB3F900301846FFF7D8FE03461A46474B1A80454BB3F9C6
:2060400002301846FFF7CEFE03461A46424B5A80404BB3F904301846FFF7C4FE03461A46B4
:206060003D4B9A803B4BB3F906301846FFF7BAFE03461A46384BDA80364BB3F908301846C1
:20608000FFF7B0FE03461A46334B1A81314BB3F90A301846FFF7A6FE03461A462E4B5A8143
:2060A0002C4BB3F90C301846FFF79CFE03461A46294B9A81274BB3F90E301846FFF792FE1B
:2060C00003461A46244BDA81224BB3F910301846FFF788FE03461A461F4B1A821D4BB3F957
:2060E00012301846FFF77EFE03461A461A4B5A82184BB3F914301846FFF774FE03461A46E2
:20610000154B9A82134BB3F916301846FFF76AFE03461A46104BDA820E4BB3F918301846EC
:20612000FFF760FE03461A460B4B1A83094BB3F91A301846FFF756FE03461A46064B5A83A6
:206140001C220549786851F0A4FB1C2318460837BD4680BDF00B0120E462012080B582B0ED
:2061600000AF7860364BB3F908301846FFF73AFE03461A46334B1A81314BB3F9003018462F
:20618000FFF730FE03461A462E4B1A802C4BB3F90A301846FFF726FE03461A46294B5A8152
:2061A000274BB3F902301846FFF71CFE03461A46244B5A80224BB3F90C301846FFF712FE76
:2061C00003461A461F4B9A811D4BB3F904301846FFF708FE03461A461A4B9A80184BB3F9B8
:2061E0000E301846FFF7FEFD03461A46154BDA81134BB3F906301846FFF7F4FD03461A4680
:20620000104BDA800E4BB3F912301846FFF7EAFD03461A460B4B5A82094BB3F910301846CE
:20622000FFF7E0FD03461A46064B1A8214220549786851F02EFB142318460837BD4680BD13
:20624000D40B0120C862012080B582B000AF78602C4BB3F900301846FFF7C4FD03461A46F4
:20626000294B1A80274BB3F902301846FFF7BAFD03461A46244B5A80224BB3F90430184618
:20628000FFF7B0FD03461A461F4B9A801D4BB3F906301846FFF7A6FD03461A461A4BDA8085
:2062A000184BB3F908301846FFF79CFD03461A46154B1A81134BB3F90A301846FFF792FDDF
:2062C00003461A46104B5A810E4BB3F90C301846FFF788FD03461A460B4B9A81094BB3F9AB
:2062E0000E301846FFF77EFD03461A46064BDA8110220549786851F0CCFA10231846083705
:20630000BD4680BD0C0C01200063012080B582B000AF78601D4BB3F900301846FFF762FD9B
:2063200003461A461A4B1A80184BB3F902301846FFF758FD03461A46154B5A80134BB3F9DE
:2063400004301846FFF74EFD03461A46104B9A800E4BB3F906301846FFF744FD03461A46D3
:206360000B4BDA80094BB3F908301846FFF73AFD03461A46064B1A810A220549786851F07A
:2063800088FA0A2318460837BD4680BD1C0C01201063012080B582B000AF7860134BB3F99C
:2063A00000301846FFF71EFD03461A46104B1A800E4BB3F902301846FFF714FD03461A465B
:2063C0000B4B5A80094BB3F904301846FFF70AFD03461A46064B9A8008220549786851F051
:2063E00058FA082318460837BD4680BD280C01201C63012080B582B000AF7860184BB3F951
:2064000002301846FFF7EEFC03461A46154B5A80134BB3F904301846FFF7E4FC03461A460E
:20642000104B9A800E4BB3F906301846FFF7DAFC03461A460B4BDA80094BB3F9003018469B
:20644000FFF7D0FC03461A46064B1A800A220549786851F01EFA0A2318460837BD4680BD29
:20646000380C01203C63012080B582B000AF7860274BB3F902301846FFF7B4FC03461A460C
:20648000244B5A80224BB3F900301846FFF7AAFC03461A461F4B1A801D4BB3F9043018461D
:2064A000FFF7A0FC03461A461A4B9A80184BB3F908301846FFF796FC03461A46154B1A8151
:2064C000134BB3F90A301846FFF78CFC03461A46104B5A810E4BB3F90C301846FFF782FCAA
:2064E00003461A460B4B9A81094BB3F906301846FFF778FC03461A46064BDA800E220549B2
:20650000786851F0C6F90E2318460837BD4680BD440C01204863012080B582B000AF786062
:20652000274BB3F906301846FFF75CFC03461A46244BDA80224BB3F902301846FFF752FCFC
:2065400003461A461F4B5A801D4BB3F900301846FFF748FC03461A461A4B1A80184BB3F9BB
:2065600004301846FFF73EFC03461A46154B9A80134BB3F908301846FFF734FC03461A46C7
:20658000104B1A810E4BB3F90A301846FFF72AFC03461A460B4B5A81094BB3F90C301846D8
:2065A000FFF720FC03461A46064B9A810E220549786851F06EF90E2318460837BD4680BDA0
:2065C000540C01205863012080B582B000AF786005F0A4FB674B1B781BB21846FFF702FC78
:2065E00003461A46644B9A81624B1B781AB2634B9A81624BB3F906301846FFF7F3FB034639
:206600001A465D4BDA805D4BB3F90E301846FFF7E9FB03461A46584BDA81594B9B781BB223
:206620001846FFF7DFFB03461A46534B1A80544B9B781AB2514B1A80514B5B781BB21846FD
:20664000FFF7D0FB03461A464B4B5A804C4B5B781AB24A4B5A804A4BDB781BB21846FFF7B2
:20666000C1FB03461A46444B9A80454BDB781AB2424B9A80414BB3F90E30012B2BD13D4B90
:206680001B780C2B11D13B4BDB78002B07D1394B1B780C3B9BB21AB2384B1A8237E0354B45
:2066A0001B781AB2354B1A8231E0324B1B780B2B0BD8304BDB78012B07D12E4B1B780C3308
:2066C0009BB21AB22D4B1A8221E02A4B1B781AB22A4B1A821BE0294BB3F90830002B11D048
:2066E000244B1B780B2B05D8224B1B781AB2234B1A820CE01F4B1B780C3B9BB21AB21F4BFC
:206700001A8204E01B4B1B781AB21C4B1A821B4BB3F910301846FFF765FB03461A46164B21
:206720001A82144B5B781BB21846FFF75BFB03461A46114B5A810F4B5B781AB20F4B5A8106
:206740000C4BDB781BB21846FFF74CFB03461A46094B1A81074BDB781AB2084B1A811222FC
:206760000549786851F095F8122318460837BD4680BD00BF4000002068630120640C01206F
:206780005400002080B582B000AF7860134BB3F900301846FFF726FB03461A46104B1A804A
:2067A0000E4BB3F904301846FFF71CFB03461A460B4B9A80094BB3F902301846FFF712FB89
:2067C00003461A46064B5A8006220549786851F060F8062318460837BD4680BD300C012093
:2067E0002463012080B582B000AF7860434BB3F9083003F001031BB21846FFF7F3FA034643
:206800001A463F4B1A803D4BB3F908309BB25B101BB203F001031BB21846FFF7E3FA0346C5
:206820001A46374B9A80354BB3F908309BB29B101BB203F001031BB21846FFF7D3FA034605
:206840001A462F4BDA802D4BB3F908309BB2DB101BB203F001031BB21846FFF7C3FA034685
:206860001A46274B1A81254BB3F908309BB21B111BB203F001031BB21846FFF7B3FA034603
:206880001A461F4B5A811D4BB3F908309BB25B111BB203F001031BB21846FFF7A3FA034683
:2068A0001A46174B9A81154BB3F908309BB29B111BB203F001031BB21846FFF793FA034603
:2068C0001A460F4BDA810D4BB3F908309BB2DB111BB203F001031BB21846FFF783FA034683
:2068E0001A46074B5A8010220549786850F0D1FF102318460837BD4680BD00BF380C012068
:206900002C63012080B582B000AF78600020FFF769FA03461A461B4B1A800020FFF762FA45
